{
  "_format": "hh-sol-artifact-1",
  "contractName": "SponsorGasModule",
  "sourceName": "contracts/SponsorGasModule.sol",
  "abi": [
    {
      "inputs": [
        {
          "internalType": "address",
          "name": "token",
          "type": "address"
        },
        {
          "internalType": "address",
          "name": "feeCollector",
          "type": "address"
        },
        {
          "internalType": "uint256",
          "name": "fee",
          "type": "uint256"
        }
      ],
      "name": "ERC20TransferFailed",
      "type": "error"
    },
    {
      "inputs": [
        {
          "internalType": "address",
          "name": "safe",
          "type": "address"
        }
      ],
      "name": "ExecutionFailed",
      "type": "error"
    },
    {
      "inputs": [
        {
          "internalType": "address",
          "name": "safe",
          "type": "address"
        }
      ],
      "name": "ModuleNotEnabled",
      "type": "error"
    },
    {
      "inputs": [
        {
          "internalType": "address",
          "name": "feeCollector",
          "type": "address"
        },
        {
          "internalType": "uint256",
          "name": "fee",
          "type": "uint256"
        }
      ],
      "name": "NativeTokenTransferFailed",
      "type": "error"
    },
    {
      "inputs": [
        {
          "internalType": "address",
          "name": "safe",
          "type": "address"
        },
        {
          "internalType": "address",
          "name": "token",
          "type": "address"
        }
      ],
      "name": "NoGasLimitSet",
      "type": "error"
    },
    {
      "inputs": [
        {
          "internalType": "address",
          "name": "refundReceiver",
          "type": "address"
        }
      ],
      "name": "NonZeroRefundReceiver",
      "type": "error"
    },
    {
      "inputs": [
        {
          "internalType": "address",
          "name": "safe",
          "type": "address"
        },
        {
          "internalType": "address",
          "name": "token",
          "type": "address"
        },
        {
          "internalType": "uint256",
          "name": "gasLimit",
          "type": "uint256"
        },
        {
          "internalType": "uint256",
          "name": "gasRequired",
          "type": "uint256"
        }
      ],
      "name": "NotEnoughGasApproved",
      "type": "error"
    },
    {
      "anonymous": false,
      "inputs": [
        {
          "indexed": true,
          "internalType": "address",
          "name": "_safe",
          "type": "address"
        },
        {
          "indexed": true,
          "internalType": "address",
          "name": "_token",
          "type": "address"
        },
        {
          "indexed": false,
          "internalType": "uint256",
          "name": "_gasLimit",
          "type": "uint256"
        }
      ],
      "name": "GasLimitApproved",
      "type": "event"
    },
    {
      "anonymous": false,
      "inputs": [
        {
          "indexed": true,
          "internalType": "address",
          "name": "_feeCollector",
          "type": "address"
        },
        {
          "indexed": false,
          "internalType": "uint256",
          "name": "_fee",
          "type": "uint256"
        },
        {
          "indexed": true,
          "internalType": "address",
          "name": "_token",
          "type": "address"
        }
      ],
      "name": "GasTransferred",
      "type": "event"
    },
    {
      "inputs": [],
      "name": "EXEC_TRANSACTION_SIG",
      "outputs": [
        {
          "internalType": "bytes4",
          "name": "",
          "type": "bytes4"
        }
      ],
      "stateMutability": "view",
      "type": "function"
    },
    {
      "inputs": [],
      "name": "NATIVE_TOKEN",
      "outputs": [
        {
          "internalType": "address",
          "name": "",
          "type": "address"
        }
      ],
      "stateMutability": "view",
      "type": "function"
    },
    {
      "inputs": [
        {
          "internalType": "address",
          "name": "",
          "type": "address"
        },
        {
          "internalType": "address",
          "name": "",
          "type": "address"
        }
      ],
      "name": "approvedGasLimit",
      "outputs": [
        {
          "internalType": "uint256",
          "name": "",
          "type": "uint256"
        }
      ],
      "stateMutability": "view",
      "type": "function"
    },
    {
      "inputs": [
        {
          "internalType": "contract GnosisSafe",
          "name": "safe",
          "type": "address"
        },
        {
          "components": [
            {
              "internalType": "address",
              "name": "to",
              "type": "address"
            },
            {
              "internalType": "uint256",
              "name": "value",
              "type": "uint256"
            },
            {
              "internalType": "bytes",
              "name": "data",
              "type": "bytes"
            },
            {
              "internalType": "enum Enum.Operation",
              "name": "operation",
              "type": "uint8"
            },
            {
              "internalType": "uint256",
              "name": "safeTxGas",
              "type": "uint256"
            },
            {
              "internalType": "uint256",
              "name": "baseGas",
              "type": "uint256"
            },
            {
              "internalType": "uint256",
              "name": "gasPrice",
              "type": "uint256"
            },
            {
              "internalType": "address",
              "name": "gasToken",
              "type": "address"
            },
            {
              "internalType": "address payable",
              "name": "refundReceiver",
              "type": "address"
            },
            {
              "internalType": "bytes",
              "name": "signatures",
              "type": "bytes"
            }
          ],
          "internalType": "struct Transaction",
          "name": "trxn",
          "type": "tuple"
        }
      ],
      "name": "execTransaction",
      "outputs": [
        {
          "internalType": "bool",
          "name": "success",
          "type": "bool"
        }
      ],
      "stateMutability": "payable",
      "type": "function"
    },
    {
      "inputs": [
        {
          "internalType": "address",
          "name": "token",
          "type": "address"
        },
        {
          "internalType": "uint256",
          "name": "gasLimit",
          "type": "uint256"
        }
      ],
      "name": "setApprovedGasLimit",
      "outputs": [],
      "stateMutability": "nonpayable",
      "type": "function"
    }
  ],
  "bytecode": "0x608060405234801561001057600080fd5b50610d46806100206000396000f3fe60806040526004361061005a5760003560e01c80636250ce31116100435780636250ce31146100c757806368868c1e146100e9578063cd20c7131461014e57600080fd5b80631e6138841461005f57806331f7d96414610087575b600080fd5b61007261006d3660046109ff565b610191565b60405190151581526020015b60405180910390f35b34801561009357600080fd5b506100af73eeeeeeeeeeeeeeeeeeeeeeeeeeeeeeeeeeeeeeee81565b6040516001600160a01b03909116815260200161007e565b3480156100d357600080fd5b506100e76100e2366004610b15565b6103d3565b005b3480156100f557600080fd5b5061011d7f6a7612020000000000000000000000000000000000000000000000000000000081565b6040517fffffffff00000000000000000000000000000000000000000000000000000000909116815260200161007e565b34801561015a57600080fd5b50610183610169366004610b41565b600060208181529281526040808220909352908152205481565b60405190815260200161007e565b600061019c336104e7565b610207576040517f08c379a000000000000000000000000000000000000000000000000000000000815260206004820152600f60248201527f6f6e6c7947656c61746f52656c6179000000000000000000000000000000000060448201526064015b60405180910390fd5b6101008201516001600160a01b03161561025f576101008201516040517fd63afd380000000000000000000000000000000000000000000000000000000081526001600160a01b0390911660048201526024016101fe565b61026883610549565b826001600160a01b031663468721a7846000636a76120260e01b86600001518760200151886040015189606001518a608001518b60a001518c60c001518d60e001518e61010001518f61012001516040516024016102cf9a99989796959493929190610be9565b60408051601f198184030181529181526020820180517bffffffffffffffffffffffffffffffffffffffffffffffffffffffff167fffffffff000000000000000000000000000000000000000000000000000000009485161790525160e086901b9092168252610346939291600090600401610c6a565b6020604051808303816000875af1158015610365573d6000803e3d6000fd5b505050506040513d601f19601f820116820180604052508101906103899190610caa565b9050806103cd576040517f0cddc7f30000000000000000000000000000000000000000000000000000000081526001600160a01b03841660048201526024016101fe565b92915050565b6040517f2d9ad53d0000000000000000000000000000000000000000000000000000000081523060048201526000903390632d9ad53d90602401602060405180830381865afa15801561042a573d6000803e3d6000fd5b505050506040513d601f19601f8201168201806040525081019061044e9190610caa565b905080610489576040517f21ac7c5f0000000000000000000000000000000000000000000000000000000081523360048201526024016101fe565b336000818152602081815260408083206001600160a01b03881680855290835292819020869055518581529192917f0e79bf3c7f91744837dc55b399190ace2dbddde8a1d10acfbb790c0d296caa77910160405180910390a3505050565b60004661014414806104fa575046610118145b610523576001600160a01b03821673abcc9b596420a9e9172fd5938620e265a0f9df92146103cd565b6001600160a01b03821673b16a1dbe755f992636705fdbb3a8678a657eb3ea1492915050565b6001600160a01b03811660009081526020818152604080832060331936013560601c8452909152902054806105c3576040517f61271e3a0000000000000000000000000000000000000000000000000000000081526001600160a01b038316600482015260331936013560601c60248201526044016101fe565b36601f19013581101561062d576040517f609c2bdf0000000000000000000000000000000000000000000000000000000081526001600160a01b03831660048201523660331981013560601c602483015260448201839052601f19013560648201526084016101fe565b60331936013560601c73eeeeeeeeeeeeeeeeeeeeeeeeeeeeeeeeeeeeeeee1415610722576001600160a01b03821663468721a736604719013560601c36601f19013560006040518463ffffffff1660e01b815260040161068f93929190610cd3565b6020604051808303816000875af11580156106ae573d6000803e3d6000fd5b505050506040513d601f19601f820116820180604052508101906106d29190610caa565b61071d576040517fe3c188040000000000000000000000000000000000000000000000000000000081523660471981013560601c6004830152601f19013560248201526044016101fe565b61089b565b6001600160a01b03821663468721a736603319013560601c60007fa9059cbb0000000000000000000000000000000000000000000000000000000036604719013560601c36601f1901356040516001600160a01b039092166024830152604482015260640160408051601f198184030181529181526020820180517bffffffffffffffffffffffffffffffffffffffffffffffffffffffff167fffffffff000000000000000000000000000000000000000000000000000000009485161790525160e086901b90921682526107fe939291600090600401610c6a565b6020604051808303816000875af115801561081d573d6000803e3d6000fd5b505050506040513d601f19601f820116820180604052508101906108419190610caa565b61089b576040517f07a1d48700000000000000000000000000000000000000000000000000000000815236603319810135606090811c6004840152604719820135901c6024830152601f19013560448201526064016101fe565b36603319013560601c6001600160a01b031636604719013560601c6001600160a01b03167f5fe6c350ce39a3567429aa424fabbe0ef8d85ba6b55d51016b98123f7065dbe436601f19013560405190815260200160405180910390a35050565b6001600160a01b038116811461091057600080fd5b50565b634e487b7160e01b600052604160045260246000fd5b604051610140810167ffffffffffffffff8111828210171561094d5761094d610913565b60405290565b803561095e816108fb565b919050565b600082601f83011261097457600080fd5b813567ffffffffffffffff8082111561098f5761098f610913565b604051601f8301601f19908116603f011681019082821181831017156109b7576109b7610913565b816040528381528660208588010111156109d057600080fd5b836020870160208301376000602085830101528094505050505092915050565b80356002811061095e57600080fd5b60008060408385031215610a1257600080fd5b8235610a1d816108fb565b9150602083013567ffffffffffffffff80821115610a3a57600080fd5b908401906101408287031215610a4f57600080fd5b610a57610929565b610a6083610953565b815260208301356020820152604083013582811115610a7e57600080fd5b610a8a88828601610963565b604083015250610a9c606084016109f0565b60608201526080830135608082015260a083013560a082015260c083013560c0820152610acb60e08401610953565b60e0820152610100610ade818501610953565b908201526101208381013583811115610af657600080fd5b610b0289828701610963565b8284015250508093505050509250929050565b60008060408385031215610b2857600080fd5b8235610b33816108fb565b946020939093013593505050565b60008060408385031215610b5457600080fd5b8235610b5f816108fb565b91506020830135610b6f816108fb565b809150509250929050565b6000815180845260005b81811015610ba057602081850181015186830182015201610b84565b81811115610bb2576000602083870101525b50601f01601f19169290920160200192915050565b60028110610be557634e487b7160e01b600052602160045260246000fd5b9052565b60006101406001600160a01b03808e1684528c6020850152816040850152610c138285018d610b7a565b9150610c22606085018c610bc7565b8960808501528860a08501528760c085015280871660e085015280861661010085015250828103610120840152610c598185610b7a565b9d9c50505050505050505050505050565b6001600160a01b0385168152836020820152608060408201526000610c926080830185610b7a565b9050610ca16060830184610bc7565b95945050505050565b600060208284031215610cbc57600080fd5b81518015158114610ccc57600080fd5b9392505050565b6001600160a01b03841681528260208201526080604082015260006080820152600060a082019050610d086060830184610bc7565b94935050505056fea2646970667358221220a5c9c4830f0552ae656cf1474e177389a6e1d30b2b07942c278586a06e4f5dd364736f6c634300080c0033",
  "linkReferences": {},
  "deployedLinkReferences": {}
}